{
  "contractName": "Lockdrop",
  "abi": [
    {
      "inputs": [
        {
          "internalType": "uint256",
          "name": "startTime",
          "type": "uint256"
        }
      ],
      "payable": false,
      "stateMutability": "nonpayable",
      "type": "constructor"
    },
    {
      "anonymous": false,
      "inputs": [
        {
          "indexed": true,
          "internalType": "uint256",
          "name": "eth",
          "type": "uint256"
        },
        {
          "indexed": true,
          "internalType": "uint256",
          "name": "duration",
          "type": "uint256"
        },
        {
          "indexed": false,
          "internalType": "address",
          "name": "lock",
          "type": "address"
        },
        {
          "indexed": false,
          "internalType": "address",
          "name": "introducer",
          "type": "address"
        }
      ],
      "name": "Locked",
      "type": "event"
    },
    {
      "constant": true,
      "inputs": [],
      "name": "LOCK_DROP_PERIOD",
      "outputs": [
        {
          "internalType": "uint256",
          "name": "",
          "type": "uint256"
        }
      ],
      "payable": false,
      "stateMutability": "view",
      "type": "function"
    },
    {
      "constant": true,
      "inputs": [],
      "name": "LOCK_END_TIME",
      "outputs": [
        {
          "internalType": "uint256",
          "name": "",
          "type": "uint256"
        }
      ],
      "payable": false,
      "stateMutability": "view",
      "type": "function"
    },
    {
      "constant": true,
      "inputs": [],
      "name": "LOCK_START_TIME",
      "outputs": [
        {
          "internalType": "uint256",
          "name": "",
          "type": "uint256"
        }
      ],
      "payable": false,
      "stateMutability": "view",
      "type": "function"
    },
    {
      "constant": false,
      "inputs": [
        {
          "internalType": "uint256",
          "name": "_days",
          "type": "uint256"
        },
        {
          "internalType": "address",
          "name": "_introducer",
          "type": "address"
        }
      ],
      "name": "lock",
      "outputs": [],
      "payable": true,
      "stateMutability": "payable",
      "type": "function"
    }
  ],
  "bytecode": "0x608060405234801561001057600080fd5b506040516103323803806103328339818101604052602081101561003357600080fd5b5051600081905562278d00016001556102e1806100516000396000f3fe60806040526004361061003f5760003560e01c806315f2e2f714610044578063396214661461006b57806366dfbfb4146100805780638cf0cb55146100ae575b600080fd5b34801561005057600080fd5b506100596100c3565b60408051918252519081900360200190f35b34801561007757600080fd5b506100596100c9565b6100ac6004803603604081101561009657600080fd5b50803590602001356001600160a01b03166100cf565b005b3480156100ba57600080fd5b506100596101ea565b60005481565b60015481565b6000544210156100de57600080fd5b6001544211156100ed57600080fd5b3332146100f957600080fd5b81601e14806101085750816064145b8061011457508161012c145b806101205750816103e8145b61012957600080fd5b42620151808302013461013b57600080fd5b60003490506000813384604051610151906101f1565b6001600160a01b03909216825260208201526040805191829003019082f080158015610181573d6000803e3d6000fd5b509050905081816001600160a01b031631101561019a57fe5b604080516001600160a01b038084168252861660208201528151879285927f1f8f04eebd96e2dab57d8611613f0e859a7e1b4bc41c7831d74435a3ee9e42fe929081900390910190a35050505050565b62278d0081565b60af806101fe8339019056fe60806040526040516100af3803806100af83398181016040526040811015602557600080fd5b508051602090910151600091909155600155606a806100456000396000f3fe60806040526001544211801560195760018114601e576032565b600080fd5b60008060008030316000545af18015601957505b5000fea265627a7a7231582067d398debc0073ec69f4d354462ff3aea20d786292abd64034cbfc2664d0c20164736f6c634300050f0032a265627a7a723158204a093866b335abab742606a1f65dfb467aca65e34d8a66e70ed63edfb612880064736f6c634300050f0032",
  "source": "pragma solidity 0.5.15;\r\n\r\nimport \"./Lock.sol\";\r\n\r\ncontract Lockdrop {\r\n    // Time constants\r\n    uint256 public constant LOCK_DROP_PERIOD = 30 days;\r\n    uint256 public LOCK_START_TIME;\r\n    uint256 public LOCK_END_TIME;\r\n\r\n    // ETH locking events\r\n    event Locked(\r\n        uint256 indexed eth,\r\n        uint256 indexed duration,\r\n        address lock,\r\n        address introducer\r\n    );\r\n\r\n    constructor(uint256 startTime) public {\r\n        LOCK_START_TIME = startTime;\r\n        LOCK_END_TIME = startTime + LOCK_DROP_PERIOD;\r\n    }\r\n\r\n    /**\r\n     * @dev        Locks up the value sent to contract in a new Lock\r\n     * @param      _days         The length of the lock up\r\n     * @param      _introducer   The introducer of the user.\r\n     */\r\n    function lock(uint256 _days, address _introducer)\r\n        external\r\n        payable\r\n        didStart\r\n        didNotEnd\r\n    {\r\n        // Accept External Owned Accounts only\r\n        require(msg.sender == tx.origin);\r\n\r\n        // Accept only fixed set of durations\r\n        require(_days == 30 || _days == 100 || _days == 300 || _days == 1000);\r\n        uint256 unlockTime = now + _days * 1 days;\r\n\r\n        // Accept non-zero payments only\r\n        require(msg.value > 0);\r\n        uint256 eth = msg.value;\r\n\r\n        // Create ETH lock contract\r\n        Lock lockAddr = (new Lock).value(eth)(msg.sender, unlockTime);\r\n\r\n        // ensure lock contract has all ETH, or fail\r\n        assert(address(lockAddr).balance >= eth);\r\n\r\n        emit Locked(eth, _days, address(lockAddr), _introducer);\r\n    }\r\n\r\n    /**\r\n     * @dev        Ensures the lockdrop has started\r\n     */\r\n    modifier didStart() {\r\n        require(now >= LOCK_START_TIME);\r\n        _;\r\n    }\r\n\r\n    /**\r\n     * @dev        Ensures the lockdrop has not ended\r\n     */\r\n    modifier didNotEnd() {\r\n        require(now <= LOCK_END_TIME);\r\n        _;\r\n    }\r\n}\r\n",
  "sourcePath": "D:\\Free\\Astar\\lockdrop-ui\\eth-truffle\\contracts\\Lockdrop.sol",
  "compiler": {
    "name": "solc",
    "version": "0.5.15+commit.6a57276f.Emscripten.clang"
  },
  "schemaVersion": "3.0.23",
  "updatedAt": "2021-08-13T10:24:13.523Z",
  "networkType": "ethereum",
  "devdoc": {
    "methods": {
      "lock(uint256,address)": {
        "details": "Locks up the value sent to contract in a new Lock",
        "params": {
          "_days": "The length of the lock up",
          "_introducer": "The introducer of the user."
        }
      }
    }
  },
  "userdoc": {
    "methods": {}
  }
}