{
  "contractName": "Lockdrop",
  "abi": [
    {
      "inputs": [
        {
          "internalType": "uint256",
          "name": "startTime",
          "type": "uint256"
        }
      ],
      "payable": false,
      "stateMutability": "nonpayable",
      "type": "constructor"
    },
    {
      "anonymous": false,
      "inputs": [
        {
          "indexed": true,
          "internalType": "uint256",
          "name": "eth",
          "type": "uint256"
        },
        {
          "indexed": true,
          "internalType": "uint256",
          "name": "duration",
          "type": "uint256"
        },
        {
          "indexed": false,
          "internalType": "address",
          "name": "lock",
          "type": "address"
        }
      ],
      "name": "Locked",
      "type": "event"
    },
    {
      "constant": true,
      "inputs": [],
      "name": "LOCK_DROP_PERIOD",
      "outputs": [
        {
          "internalType": "uint256",
          "name": "",
          "type": "uint256"
        }
      ],
      "payable": false,
      "stateMutability": "view",
      "type": "function"
    },
    {
      "constant": true,
      "inputs": [],
      "name": "LOCK_END_TIME",
      "outputs": [
        {
          "internalType": "uint256",
          "name": "",
          "type": "uint256"
        }
      ],
      "payable": false,
      "stateMutability": "view",
      "type": "function"
    },
    {
      "constant": true,
      "inputs": [],
      "name": "LOCK_START_TIME",
      "outputs": [
        {
          "internalType": "uint256",
          "name": "",
          "type": "uint256"
        }
      ],
      "payable": false,
      "stateMutability": "view",
      "type": "function"
    },
    {
      "constant": false,
      "inputs": [
        {
          "internalType": "uint256",
          "name": "_days",
          "type": "uint256"
        }
      ],
      "name": "lock",
      "outputs": [],
      "payable": true,
      "stateMutability": "payable",
      "type": "function"
    }
  ],
  "bytecode": "0x608060405234801561001057600080fd5b5060405161030a38038061030a8339818101604052602081101561003357600080fd5b5051600081905562093a80016001556102b9806100516000396000f3fe60806040526004361061003f5760003560e01c806315f2e2f714610044578063396214661461006b5780638cf0cb5514610080578063dd46706414610095575b600080fd5b34801561005057600080fd5b506100596100b4565b60408051918252519081900360200190f35b34801561007757600080fd5b506100596100ba565b34801561008c57600080fd5b506100596100c0565b6100b2600480360360208110156100ab57600080fd5b50356100c7565b005b60005481565b60015481565b62093a8081565b6000544210156100d657600080fd5b6001544211156100e557600080fd5b3332146100f157600080fd5b80600114806101005750806003145b8061010b5750806007145b61011457600080fd5b42620151808202013461012657600080fd5b6000349050600081338460405161013c906101c9565b6001600160a01b03909216825260208201526040805191829003019082f08015801561016c573d6000803e3d6000fd5b509150506001600160a01b03811631821461018357fe5b604080516001600160a01b03831681529051859184917ffa6c2c931d0791e8fa17b66f2d4a4c4930b1e590bc2033e540fc3435f67aec769181900360200190a350505050565b60af806101d68339019056fe60806040526040516100af3803806100af83398181016040526040811015602557600080fd5b508051602090910151600091909155600155606a806100456000396000f3fe60806040526001544211801560195760018114601e576032565b600080fd5b60008060008030316000545af18015601957505b5000fea265627a7a72315820209a4db22f9d2b92340ef94770713dbb73a3d14b3fad2bc9661d05e152ac949564736f6c634300050d0032a265627a7a723158200583acae3c1b08df551eb3521ef94391e11419c331b9341c90512a73d85ebbc564736f6c634300050d0032",
  "source": "pragma solidity ^0.5.0;\n\nimport './Lock.sol';\n\ncontract Lockdrop {\n    // Time constants\n    uint256 constant public LOCK_DROP_PERIOD = 7 days; // Testnet lockdrop duration\n    uint256 public LOCK_START_TIME;\n    uint256 public LOCK_END_TIME;\n\n    // ETH locking events\n    event Locked(uint256 indexed eth, uint256 indexed duration, address lock);\n\n    constructor(uint startTime) public {\n        LOCK_START_TIME = startTime;\n        LOCK_END_TIME = startTime + LOCK_DROP_PERIOD;\n    }\n\n    /**\n     * @dev        Locks up the value sent to contract in a new Lock\n     * @param      _days         The length of the lock up\n     */\n    function lock(uint256 _days)\n        external\n        payable\n        didStart\n        didNotEnd\n    {\n        // Accept External Owned Accounts only\n        require(msg.sender == tx.origin);\n\n        // Accept only fixed set of durations\n        //require(_days == 30 || _days == 100 || _days == 300 || _days == 1000); \n        // XXX: Testnet\n        require(_days == 1 || _days == 3 || _days == 7); \n        uint256 unlockTime = now + _days * 1 days;\n\n        // Accept non-zero payments only\n        require(msg.value > 0);\n        uint256 eth = msg.value;\n\n        // Create ETH lock contract\n        Lock lockAddr = (new Lock).value(eth)(msg.sender, unlockTime);\n\n        // ensure lock contract has all ETH, or fail\n        assert(address(lockAddr).balance == eth);\n\n        emit Locked(eth, _days, address(lockAddr));\n    }\n\n    /**\n     * @dev        Ensures the lockdrop has started\n     */\n    modifier didStart() {\n        require(now >= LOCK_START_TIME);\n        _;\n    }\n\n    /**\n     * @dev        Ensures the lockdrop has not ended\n     */\n    modifier didNotEnd() {\n        require(now <= LOCK_END_TIME);\n        _;\n    }\n}\n",
  "sourcePath": "/home/akru/devel/ethereum-lockdrop/contracts/Lockdrop.sol",
  "compiler": {
    "name": "solc",
    "version": "0.5.13+commit.5b0b510c.Emscripten.clang"
  },
  "schemaVersion": "3.0.11",
  "updatedAt": "2019-12-12T23:03:52.514Z",
  "devdoc": {
    "methods": {
      "lock(uint256)": {
        "details": "Locks up the value sent to contract in a new Lock",
        "params": {
          "_days": "The length of the lock up"
        }
      }
    }
  },
  "userdoc": {
    "methods": {}
  }
}